:02000000182BBB
:10063000831687018801FF30860006309F008312F1
:100640008F270030CA27A5000130CA27A6000A302C
:100650002502031C2D2BA501A6018830A7005B25D0
:100660002430A8000030A9006A25B0013008A72571
:100670008A01003803193F2B7125B00A362B12303E
:10068000A8000130A9006A25B0013008B3258A010D
:10069000003803194E2B8125B00A452B1230A800D3
:1006A0000230A9006A25B0013008C2258A0100384D
:1006B00003195D2B8125B00A542B0A30A8000330A2
:1006C000A9006A25B0013008D1258A010038031934
:1006D0006C2B7125B00A632B1430A8000430A900DC
:1006E0006A25B0013008EA258A01003803197B2BFE
:1006F0007125B00A722BC127C127AC0A1430A8009B
:100700000530A9006A252C198F2BB0013008FE2571
:100710008A0100380319952B7125B00A862B2C30DD
:10072000A8000030A227A80B912B06187B2BC1270D
:10073000061C982BF7230F249324CA244725B82797
:10074000220803199B2BCA240A30AA00C127AA0B2E
:10075000A62B25082302031CBF2B031DB32B260841
:100760002402031CBF2B0030A8002308D727013028
:10077000A8002408D7272308A5002408A6005B2585
:100780001A30A8000130A9006A25B00130081226ED
:100790008A0100380319CF2B8125B00AC62B1A30E5
:1007A000A8000230A9006A25B00130081F268A017E
:1007B00000380319DE2B8125B00AD52B0C30A80098
:1007C0000430A9006A25B00130082C268A010038BF
:1007D0000319ED2B7125B00AE42B2508972526086F
:1007E00097250618F12BC127061CF42B9A2B1630DF
:1007F000A000A101A201A301A401B401C301C4018D
:100800001830C0003C30B500C424B6004008B70022
:100810006930B800C424B9004008BA0008000130AB
:10082000A1072108A0072A302002031889240830D4
:100830002002031C89240618252C3408031D262CAD
:10084000FD30A1000130B400262CB4014408031986
:100850002F2CC403451C2F2C0330AD00312C01304C
:10086000AD003524AD0B312C0800B50335080F3A27
:100870000319B324B51F552C5430B500C424B60059
:100880004008B700B42727080F39031D552C43141F
:100890005430C100B4272718512C3608023EC2003C
:1008A000552C40083607FC3EC200B80338080F3A02
:1008B0000319B324B81F622C5430B800C424B90003
:1008C0004008BA004318C1033508BB003608BC0015
:1008D0003708BD0073243808BB003908BC003A084B
:1008E000BD007324080015303B02031808003B08C4
:1008F000083EA8000F302802031C080020083C0214
:10090000031C832C892C3D083C0720020318892CEA
:10091000080044080319912C45180800A109A10AF0
:10092000080022140800431C08004108153C031C61
:1009300008000B304102031C08002008083EA800F4
:1009400042082802031C08004208043EA8002008B0
:100950002802031C0800C3016430C400B427270820
:100960000139C50008000530A4070A302402031C21
:100970000800A400A30A0A3040020318C0030A308A
:1009800023020318A3010800B42727081F390C3ECF
:10099000A80008008030A0274030A027B101B20194
:1009A000B3013108031DF62CB31746303202031C85
:1009B0003A2D49303202031CE62C4D303202031C22
:1009C0003A2D50303202031CEE2C3A2D3208BA3E3A
:1009D000A80023085A268A01B3043A2D3208B33EF0
:1009E000A80024085A268A01B3043A2D05303102A2
:1009F000031DFC2CC030B30035083202031C0A2D45
:100A0000A8000830280203180A2D3608BE0037084F
:100A1000BF00172D38083202031C1C2DA800083017
:100A2000280203181C2D3908BE003A08BF00280808
:100A3000BB00FF262808B304431C2C2D41083202BA
:100A4000031C2C2DA8000430280203182C2D280884
:100A5000BB005B272808B3040F303202031C3A2D79
:100A6000A8000630280203183A2D2808BB002527C5
:100A70002808B3043308A227B20A54303202031CF8
:100A8000D02CB10A06303102031CCF2C08004408D8
:100A900003190800441D08000030A8000030A90018
:100AA0006A25B001300843268A010038031908007E
:100AB0007125B00A522D8030A0274030A027063083
:100AC000B1005430B2000030A227B20B632DB10B3D
:100AD000612D080028088038A02729084038A02761
:100AE0000800AB00BC013C08A8002B085A268A016C
:100AF000A227BC0A03303C02031C732D0030A2273E
:100B00000800AB00BC013C08A8002B085A268A014B
:100B1000AC002C08A2272C08A227BC0A03303C02F8
:100B2000031C832D0030A2270030A2270800AB0051
:100B3000BC013C08A8002B085A268A01A227BC0A3F
:100B400003303C02031C992D0030A2270800AD00A1
:100B500005308A00AF302D0703188A0A82000D3451
:100B60001D341E340034AD0005308A00BB302D0723
:100B700003188A0A82000F3415340A3419341934E0
:100B800022340034AD0005308A00CA302D07031826
:100B90008A0A82000B3412341B340D342434253479
:100BA0000034AD0005308A00D9302D0703188A0AB9
:100BB00082000A340B340E340E341D3424341934BC
:100BC0000A341E34153424341C34123417341034CF
:100BD00011340034AD0005308A00F2302D070318BF
:100BE0008A0A82001F3412341F340A340A3417343C
:100BF0002434103418340E3415340034AD0006306B
:100C00008A0006302D0703188A0A820019341B3423
:100C10000E341C341C3424341C341D340A341B346C
:100C20001D340034AD0006308A001A302D07031839
:100C30008A0A820010340A3416340E340034AD00AF
:100C400006308A0027302D0703188A0A82001834DC
:100C50001F340E341B340034AD0006308A003430AB
:100C60002D0703188A0A820011341234103411340B
:100C70000E341C341D3424341C340C3418341B340E
:100C80000E3426340034AD0006308A004B302D0778
:100C900003188A0A8200123417341F3412341734AE
:100CA0000C3412340B3415340E34283428342834E0
:100CB00028340034A9000310290D29072807AA00A9
:100CC00006308A0067302A0703188A0A82003E34F9
:100CD00022343E3400343E3400343A342A342E3444
:100CE0002A342A343E340E3408343E342E342A3426
:100CF0003A343E342A343A34023402343E343E34F8
:100D00002A343E342E342A343E343E340A343E34BF
:100D10003E342A3414341C34223422343E342234F7
:100D20001C343E342A3422343E340A3402341C3417
:100D300022342C343E3408343E3422343E342234BF
:100D4000103420341E343E34083436343E342034DB
:100D500020343E3404343E343E34043438341C34BD
:100D600022341C343E3412340C341C342A343C34C7
:100D70003E3412342C3424342A34123402343E34B7
:100D800002341E3420341E340E3430340E343E34DB
:100D900010343E34363408343634063438340634AD
:100DA00032342A34263400340034003408341C34FD
:100DB00008340834083408342F3400340034A900CF
:100DC00006308A00E730290703188A0A82000E34A9
:100DD0001134153411340A3404340E3411341134FE
:100DE00015340A340434A90006308A00FB30290780
:100DF00003188A0A82000F34093409340F34A80119
:100E00003108031908000830A9003108AA000310AE
:100E1000AA0D0310AA0D0310AA0D0130AB003E0865
:100E20002A02031C192F3F083E072A020318192F14
:100E30001F2F3B08013A03191F2F2B08A804AA0AE9
:100E40000310AB0DA90B0F2F08003B082218063E1C
:100E5000DF268A01AB002008A9000310A90C0310AB
:100E6000A90C0310290C0739AA0031082A0203191A
:100E70003F2F2A0A310203194C2FA801080020082D
:100E80000739A9002B08A800A908031908000310B6
:100E9000A80DA90B472F080020080739083CA90016
:100EA0002B08A800A908031908000310A80CA81310
:100EB000A90B552F08003B08F3268A01AB00420816
:100EC000A9000310A90C0310A90C0310290C073961
:100ED000AA0031082A020319732F2A0A31020319C2
:100EE000802FA801080042080739A9002B08A80094
:100EF000A908031908000310A80DA90B7B2F0800EF
:100F000042080739083CA9002B08A800A9080319C2
:100F100008000310A80CA813A90B892F08000811BA
:100F2000C127081588102130A027BF30A027063020
:100F3000A0271330A0272030A0270C30A0270800BE
:100F40000810A32F08148810AE000830AF0000006E
:100F5000AE1B8716AE1F8712871500008711AE0DD6
:100F6000AF0BA72F88140800270D2706A70D080030
:100F70000530A800FF30A900A90BBC2FA80BBA2F81
:100F800008008030A800FF30A900A90BC52FA80BCE
:100F9000C32F0800031783128D00031783168C13C9
:100FA0000C14031783120C08031383120800031395
:100FB0008312A9002808031783128D0003138312DC
:100FC0002908031783128C00031783168C130C1542
:100FD0008B1355308D00AA308D008C14FF30031315
:100FE0008312AA00031783168C1CFA2F0313831293
:100FF000AA0BF22F031783160C1103138312080098
:02400E00323F3F
:00000001FF
